:10000000F8FF002011040000F32A0000F32A00008A
:10001000F32A0000F32A0000F32A0000F32A00006C
:10002000F32A0000F32A0000F32A0000F32A00005C
:10003000F32A0000F32A0000F32A0000F32A00004C
:10004000F32A0000F32A0000F32A0000F32A00003C
:10040000FFFFFFFFFFFFFFFFFFFFFFFFFEFFFFFFFD
:1004100062B605F0BBFEFEE72DE9F04FA1B08246C3
:1004200002AE002017461D46029170620DF144088D
:100430000AE017F8011B0298D0470290002800F04C
:10044000D482706A401C7062387808B9706ACEE253
:100450002528EED10020F06030617061B061F0615C
:10046000306201E040F0010017F8011F2029F9D0A7
:1004700023290DD02B2904D02D2906D030290AD0CC
:100480000CE040F0020080B2EEE740F00400FAE732
:1004900040F00800F7E740F01000F4E72A290DD1FA
:1004A00029680A1D2A600968F162002904D54942B9
:1004B00040F00400F16280B27F1C13E00021F16281
:1004C0000BE0F16A6FF00043994205D001EB810324
:1004D00002EB43013039F1627F1C3A78A2F130011E
:1004E0000A29EED339782E2903D04FF0FF31B162BB
:1004F0001EE017F8011F2A2906D129680A1D2A6063
:100500007F1C0968B16213E00021B1620BE0B16A9F
:100510006FF00043994205D001EB810302EB4301E8
:100520003039B1627F1C3A78A2F130010A29EED34A
:1005300030860FF6AC20397800F070FD08B117F85E
:10054000010B8DF83A009DF83A00682802BF39780F
:100550006829622005D06C2804BF38786C2803D144
:1005600071208DF83A007F1C11A8B0603978B1F184
:10057000250023D02038022840F2B980133800F03B
:10058000E1800B3800F07781401E00F02081401E92
:10059000022840F2AC80001F00F01981401F7BD080
:1005A000401E00F0CF80401E22D0C01E0BD0801E07
:1005B00000F0C880C01E00F0C58064E1F068411CF6
:1005C000F160252169E12868011D29600068B26A8F
:1005D0007060002A02D500F02DFD07E0002100F038
:1005E00045FD00281ABF7168401AB06A306156E1B3
:1005F0002868011D296000210068CDE900014FF045
:100600003C0E11A87060DDE9000111B908B9B26AA9
:10061000CAB10206120FA0EB02123032AEF1010392
:10062000D2B29E463A2AA8BF2732000903F8082012
:1006300040EA0170090908BF002804D0726811ABB4
:1006400073449A42E5D311A971447160CEF13C0024
:10065000B16A3061884207DA081AB0614FF6EF716B
:10066000308E084030861AE1002940F1188196F852
:10067000301001F01401102940F01181F16AF26884
:10068000891AB269891AA1EB000EBEF1010FC0F2FE
:100690000681C6F818E002E19DF83A00622818D0F9
:1006A000682806D06A280BD06C2819D0712807D08A
:1006B00016E02868011D29600068716A0180EEE07B
:1006C0002A68101D28601268706AC117C2E900010B
:1006D000E5E02868011D29600068716A0170DEE0AC
:1006E0002868011D29600068716A0160D7E02868E8
:1006F000C01D20F00700286000F108022A60D0E940
:100700000023CDE90023002B04D5F068421CF260E1
:100710002D220DE0308E820704D5F068421CF26075
:100720002B2205E0C00705D5F068421CF2602022AC
:1007300000F80820F06811AA8018706000A800F086
:10074000DDF9ACE09DF83A006C2808BF2A6811D0AA
:10075000712808BF2A6802D02A686A280AD1D21DE7
:1007600022F007022A60144604F108022A60D4E944
:10077000002303E0131D2B6000231268CDE9002342
:10078000682808BF92B207D0622808BFD2B203D04F
:10079000742818BF7A2802D10023CDE9002396F8E7
:1007A000300000075FD5DDE90023002B08BF002AD9
:1007B00059D041F02000782855D1F068302200F857
:1007C0000820401C421CF26000F808104BE09DF825
:1007D0003A0062280CD0682810D06A281AD06C28F9
:1007E00023D0712816D074281FD07A280CD01CE092
:1007F0002868021D2A6090F900201AE02868021D6E
:100800002A60B0F9002014E02868021D2A60002345
:1008100002680FE02868C01D20F00700286000F182
:1008200008022A60D0E9002304E02868021D2A603B
:100830000268D317CDE90023002B04DAF068421CCC
:10084000F2602D220DE0308E820704D5F068421C44
:10085000F2602B2205E0C00705D5F068421CF2606B
:10086000202200F80820F06811AA8018706000A803
:1008700000F0C0F813E0F068411CF16029680A1D1F
:100880002A60096809E0F068421CF260252200F83D
:10089000082021B1F068421CF26000F80810F06AEC
:1008A000F168401AB169401A3169401AF169401A79
:1008B0007169401A316AA0EB010996F830007F1C7B
:1008C000400710D420208DF84000002409E00123C7
:1008D00010AA00A9504600F06BFB002840F085806C
:1008E000641C4C45F3DBF4680DF1440B0AE01BF883
:1008F000011B0298D0470290002876D0706A401CF5
:100900007062641E002CF2D130208DF840004FF050
:10091000000BB46909E0012310AA00A9504600F0B9
:1009200047FB002861D10BF1010BA345F3DB3469D0
:10093000D6F804B00AE01BF8011B0298D0470290D9
:10094000002852D0706A401C7062641E002CF2D1E4
:1009500030208DF840004FF0000BF46909E00123CE
:1009600010AA00A9504600F023FB00283DD10BF14E
:10097000010BA345F3DB30697168746900EB010B6F
:1009800009E01BF8011B0298D047029068B3706A17
:10099000401C7062641E002CF3D130208DF84000A2
:1009A0004FF0000B346A08E0012310AA00A950465A
:1009B00000F0FEFAC8B90BF1010BA345F4DB96F881
:1009C000300040077FF540AD20208DF84000002426
:1009D00000E0641C4C45BFF637AD012310AA00A906
:1009E000504600F0E5FA0028F3D04FF0FF3021B078
:1009F000BDE8F08F2DE9FA4E05460A462F696F2AA9
:100A000008BF082405D041F02000782814BF0A242C
:100A10001024D5E900013C2681468B46642A18BF84
:100A2000692A05D1002903DAD9F100096BEB4B0BD8
:100A3000BBF1000F08BFB9F1000F0CD1286B50B902
:100A4000082C36D195F83800000732D530203B26E7
:100A500087F83B002DE0E31748465946224600F050
:100A600031FBA4FB0023A9EB02023032A6F1010AFC
:100A7000D2B256463A2A03DB9DF80030513B9A1811
:100A80000AF8072081465FEA010B08BFB9F1000FA1
:100A900003D0E868F1198842DDD3082C09D195F814
:100AA0003800000705D5F05D302802D0761E3020D2
:100AB000F055C6F13C00A861F119E960296B884244
:100AC00008DA081A28624FF6EF71288F0840288745
:100AD000BDE8F38E00290ED595F8381001F0140109
:100AE000102908D1696B6A69891A2A6A891A081A51
:100AF0000128A8BF2862BDE8F38E00002DE9F34F5E
:100B00008BB0D0E90089006B01AF002848BF0620F8
:100B100005D404BF41F02000672802D101200B99C1
:100B2000086340F2FF720B984168C1F30A5090428B
:100B300020D1080302BF0B98006800280AD10B9946
:100B4000032088619DF8300061381A2858D30FF2CD
:100B5000A44109E00B99032088619DF830006138B9
:100B60001A284AD30FF284410B98C068032200F080
:100B700021FB00E1012807DA0B9800F056FB012861
:100B800002DB00230026EDE00B9A526840F2FE31B2
:100B900061F31E520B994A6040F2FE31461A4046FC
:100BA00049460022002300F061FB38BF89F000496C
:100BB00036B247F2975070434949DFF828B190FBAD
:100BC000F1F636B2C6F107079246012F1BDBF80794
:100BD00007D552465B464046494600F05FFB8046DB
:100BE00089467F105046594652465B4600F056FBF8
:100BF00082468B46002FEAD126E00FF2EC31B3E7B4
:100C00000FF2EC31B0E77F420024374D12E0F807D5
:100C100007D552465B462046294600F03FFB044676
:100C20000D467F105046594652465B4600F036FB53
:100C300082468B46002FEAD14046494622462B4643
:100C400000F0FEFB804689469DF8300040F020050C
:100C5000662D0CBF06F10A0006200B99096B471898
:100C6000142FA8BF132730208DF804000DF10504C0
:100C7000DFF878B0012F3BDB4046494600F004FD29
:100C8000014604F1080204234FF00A0CB1FBFCFCFE
:100C90000CEB8C04A1EB4401303102F8011D0A2158
:100CA000BCFBF1FE0EEB8E04ACEB44043034714619
:100CB00002F8014D5B1EE7D1083F02F10804012F45
:100CC000D8DB00F0F7FC02460B464046494600F0F0
:100CD000FFFC00225B4600F0E1FA80468946CBE744
:100CE000A0860100000024400000F03F84D7974117
:100CF0000DF10500201A0DF1050702E0401E761ED9
:100D00007F1C39783029F9D0662D02D136B2711C9A
:100D100003E0652D0CBF012100210B9A126B8B188B
:100D20001BB29842B8BF03461BB219001AD48142C5
:100D300004DAC85D3528A8BF392000DA3020CA1986
:100D4000521E00E05B1E12F80159491E8542F9D07F
:100D5000392802D1C85D401CC855002902D57F1E24
:100D60005B1C761C36B29DF830100B9800961BB2B7
:100D70003A4600F003F80DB0BDE8F08F2DE9F047DA
:100D800086B006468A4690461D4600F07EFD406AC3
:100D9000376B90F80090012D02DA01250FF25828E8
:100DA0004AF02000BDF93840662808BF641C13D003
:100DB000672840F0878014F1040F72DBBC4270DAC0
:100DC00096F83800641C000702D4BD42B8BF2F4615
:100DD00024B23F1B48BF0027F068B16924B2012C40
:100DE00021DA30234A1C0B54012F03DA96F838100D
:100DF000090702D502F80090521CB261E742B8BF61
:100E00007C4224B26142E7197162AF42B8BF3D46ED
:100E10002DB2F5612A46B3694146181800F0CAF9A7
:100E2000781BB062ADE00818A54216DA2A464146A2
:100E300000F0C0F9B1696918B161601B7062012FDF
:100E400003DA96F83800000705D5F06801F800903D
:100E5000F069401CF061B76293E02246414600F021
:100E6000A9F9B06920182D1B012F03DA96F8381064
:100E7000090703D5F16800F80190401C2DB2B0615C
:100E8000AF42B8BF3D46F3682DB22A4604EB0801D5
:100E9000C01800F08FF9B0692818B061781B706233
:100EA0006FE0BD4204DA96F83810090758BF2F46A4
:100EB0007F1E48BF0027BAF1670F0CBF4FF0650ACD
:100EC0004FF0450AB169F06818F8013B0B544A1C11
:100ED000012F05DA96F83810090758BFB26115D509
:100EE00002F80090531CB361012F0FDB6D1E2DB271
:100EF000AF42B8BF3D462DB22A464146181800F011
:100F000059F9B0692818B061781B7062B069F1684E
:100F100000EB0108200008F801AB03D42B2008F8EF
:100F2000010B03E02D2108F8011B6442002502AFEC
:100F300008E00A2200A800F0C1FC019807F8010BA4
:100F40006D1C009C21B20129F3DA022D06DA4AF069
:100F50002000652804BF302008F8010B4DB930206F
:100F600008F8010B07E06D1E02A8285C303008F875
:100F7000010B012DF7DAB069F1684018A8EB000009
:100F8000F06196F8380000F0140010280DD1706957
:100F9000B1690818716A0818F1690818B16A081867
:100FA000716B8842BCBF081A306206B0BDE8F0879A
:100FB000F8B504460D4616461F46002004E0E86AD0
:100FC000401CE8627F1E002047B116F8011BA8688C
:100FD000A047A8600028F2D14FF0FF30F2BD00001A
:100FE000686A6C747A4C00006E616E004E414E006F
:100FF000696E6600494E4600300050F8041B61B12E
:1010000050F8042BD30744BFA9F101039A18002319
:1010100042F8043B091FFAD1EFE770470278C9B2E2
:101020008A421AB11CBF10F8012FF9E718BF00203F
:101030007047000000F10103810704D010F8011B84
:1010400089B18107FAD10268B2F10131914311F0FF
:10105000803F04BF50F8042FF6E710F8011B11B1D0
:1010600010F8011BFBE7C01A70470000C9B28307E4
:1010700006D0521E22D310F8013B9942F7D11FE04F
:10108000083A13D302F1040241EA012141EA014185
:1010900050F8043B121F21BF4B40A3F1013C2CEA46
:1010A000030C1CF0803FF3D0C9B2001F083210F8C7
:1010B000013B521E28BF91EA030FF8D818BF012048
:1010C000401E70471B4213D1094236D12AB18446D3
:1010D000B0FBF2F002FB10C2704700F0F7BBFCD38C
:1010E0000022002370470B000200002100207047FF
:1010F000904271EB030CF6D370B5B1FA81F4B3FAF8
:1011000083F52C1BA340C4F1200532FA05F63343C6
:10111000A2405FF00046E64002E05B085FEA320270
:10112000841A71EB030524BF204629467641F4D387
:1011300002000B003000002170BD012ACFD970B52C
:10114000140C20D0B1FA81F4B2FA82F5C4F1200473
:101150006419B4F12006D6D3B2405FF00044F440E5
:10116000002502E052085FEA3303C61A71EB020E53
:1011700024BF3046714664416D41F3D302000B0039
:101180002000290070BD0C46B1FBF2F102FB1145B5
:101190002D0445EA1045B5FBF2F402FB145580B26C
:1011A00040EA0545B5FBF2F002FB105240EA04406C
:1011B00070BD000062B38B0708D0521E11F8013BCE
:1011C00000F8013B00F024808B07F6D1830740F044
:1011D000208000BF103A07D330B4B1E83810103A7D
:1011E000A0E83810F9D230BC530724BFB1E808108A
:1011F000A0E8081044BF51F8043B40F8043BD20774
:1012000024BF31F8022B20F8022B44BF0B78037067
:101210007047083A07D3B1E80810083A40F8043B91
:1012200040F804CBF7D25307E4E730B4436803F047
:10123000004201211B031B0B436004BF0368002B0A
:1012400008D10DE00368DD0F45EA440444605B000B
:101250000360491E4468E302F4D523031B0B43607B
:1012600043681A434260084630BC70474FF4001C84
:101270001CEB410F94BF1CEB430F09E041EA030C48
:1012800050EA4C0C52EA0C0C03D2994208BF90422F
:10129000704714BF8B42824270470000B0B581EAAC
:1012A000030C0CF0004C40F2FF7515EA11541DBF01
:1012B00015EA1357AC42AF4239E0E41923EA45532B
:1012C00043F48013C90241F0004141EA505EC70275
:1012D0001100A7FB020200284FF00000EEFB0120E6
:1012E0004FF00001E3FB072118BF42F00102401854
:1012F00000214941E3FB0E01A4F580640F0302D2F3
:1013000052004041494154F101046CDD470872F13B
:10131000004250F1000051EB0451A1F580115CBF77
:1013200041EA0C01B0BD4CEA05510020B0BD05EA10
:101330001357AC4214BFAF4241E050EA410E1CBF0C
:1013400052EA430E02E061460020B0BD24423C4414
:101350001BD15FEA070EF6D0090302BF0146002049
:10136000AEF1140EB1FA81F7AEEB070401FA07FEF5
:101370000C37C7F1200100FA07F7C8404EEA000E0B
:1013800023EA455343F48013A2E733F00043B3FA52
:1013900083F704BFB2FA82FE77440B3FE41BB7F138
:1013A000200E2FBF02FA0EF3BB40C7F1200E22FA27
:1013B0000EFE38BF43EA0E03BA40641C82E750EACF
:1013C000410E14BF52EA430E6FF000014FF40017B4
:1013D00017EB430F8ABF194617EB410FB5E74CEAED
:1013E00005510020B0BDD4F10104B4F120070FDA9B
:1013F000C4F12007520828BF42F0010210FA07F595
:1014000001FA07F7E1BF2A43E0403843E1400FE02B
:10141000352C98DCC7F1200452EA400220FA07F28A
:1014200018BF42F0010231FA07F0A1400A4300213F
:1014300072F1004250F1000051EB0C01B0BD000010
:10144000F0B540F2FF7581EA030C0CF0004C15EA90
:1014500011541DBF15EA1357AC42AF42E5E0BC4141
:10146000C1F31301C3F31303801A994143F48013AA
:1014700004D2641E4000494180185941C90241EA22
:101480005051B1FBF3F603FB1611A2FB0675D7EB27
:10149000C020A94102D2761E80185941C90241EAF2
:1014A0005051B1FBF3FE03FB1E11A2FB0E75D7EBEF
:1014B000C020A94103D2AEF1010E80185941890222
:1014C00041EA9051760546EA8E2EB1FBF3F603FB16
:1014D0001611A2FB0675D7EB8020A94102D2761E19
:1014E00080185941C90241EA50514EEA060EB1FB3B
:1014F000F3F603FB1611A2FB0675D7EBC020A9413A
:1015000002D2761E80185941C90241EA5051B1FBFE
:10151000F3F703FB1711A2FB0735D3EBC020A9415A
:1015200067F100070CBF004247F0010766F3D527BB
:101530004FEA1E31B80814F5806412DDBD0775F15D
:10154000004250EB0E5051EB045111F5801F5CBF6F
:1015500041EA0C01F0BD4CF07F6141F0E041002018
:10156000F0BDBD076D0840EA0E5041F48011D4F182
:101570000104B4F120060ADAC4F120060200E040BA
:1015800001FA06F3E1401843B24015430EE0342C53
:1015900013DCC6F1200445EA40056D0820FA06F286
:1015A000154321FA06F0A1400D43002175F10042D8
:1015B00050F1000051EB0C01F0BD00205FEA0C017E
:1015C000F0BDCFB992185B41B3FA83F704BFB2FA0A
:1015D00082F6BF190B3FB7F120062FBF02FA06F3C0
:1015E000BB40C7F1200622FA06F638BF3343BA40A3
:1015F0001CB1E419641E33E77F4231F00041B1FAB7
:1016000081F404BFB0FA80F6A4190B3CB4F12006B3
:101610002FBF00FA06F1A140C4F1200620FA06F619
:1016200038BF3143A0403C1B1AE7AC421ABF05EA61
:101630001357AF4212E050EA41061CBF52EA43067C
:10164000BFE750EA4107304661461CBF41EA0551F9
:10165000F0BD52EA430C08BFC143F0BD00204FF477
:10166000001616EB410F98BF16EB430F08BF16EBA1
:10167000410F24BFC14305E016EB430F0CBF614689
:101680004CEA0551F0BD0000400D40EAC120490080
:1016900080F00D8040F00040490DA1F58061491CAB
:1016A00005D4D1F11F0154BFC840C01770474FF097
:1016B00000007047010000BF09D0B0FA80F18840F7
:1016C000C91CC1F58461090501EBD02140057047B3
:1016D00070B44FF0004591EA030F44BF6B4000F037
:1016E000F7B800BF841A71EB030604D26E40001BEA
:1016F000B141121973414FF4001C1CEB410F34BF70
:101700007CEB430684E00C0DA4EB1356362E7DDCF7
:10171000012E43DC45EAC32343EA525312BFD202EF
:1017200092025B08240545EAC12141EA5051D2EBFF
:10173000C020994125D407D1B0FA80F610FA06F1FD
:1017400064D00020203608E0B1FA81F6B140C6F13D
:10175000200220FA02F21143B0404FEAF474B4EBD5
:10176000465434F001064FEA74040AD8D6F5001640
:10177000760D04F00044F04061FA06F25040F1406A
:101780004840C00A40EA415021F0004128BF5FEACA
:10179000500550F1000044EBD12137E045EAC32366
:1017A000DB0A45EAC121C90AB6F120050EDD42EA8D
:1017B0000242120CC5F1200603FA06F6EB4042EA9B
:1017C00006056D42984161F100010DE062FA06F5EF
:1017D000F240554063FA06FC82EA0C02F3405A409C
:1017E0006D42904161EB030111F4801F05D1641E2D
:1017F000620502D06D004041494121F48011430847
:1018000075F1004350F1000041EB045170BC70478A
:101810001CEB410F15D223F0004352EA43060BD0D4
:101820004FEA4C0CBCEB410F04D80C0D661E342E55
:10183000B7DDEBE7801A994150EA410608BF002165
:10184000E4E708BF1CEB430F28BF6FF00001DDE7A2
:1018500080B5134800F0A6F80FF24801016041601E
:101860008160C1600161416181610FF23C024262AD
:101870008162C162016341630FF2300282630FF241
:101880003402C2630164416401BD10B5044800F034
:1018900089F80446206808B9FFF7DAFF204610BD32
:1018A000EC1EFF1F000000002E00000066616C733C
:1018B00065000000747275650000000091FBF2F392
:1018C00003FB1211C0E900317047000070470000AF
:1018D000841A71EB030603D2001BB1411219734144
:1018E0004FF4001C1CEB410F34BF7CEB430443E07E
:1018F0000C0DA4EB1356352E50DC45EAC323DB0A4E
:1019000045EAC121C912B6F120050DDD63FA05F6DD
:10191000EB4086EA0305124218BF45F00105C018E6
:1019200051F100010CD213E062FA06F5F240554085
:10193000F3415A40B340F3405A408018594107D30D
:1019400049085FEA30005FEA350528BF45F0010528
:1019500001F58011420875F1004250F1000041EBA1
:10196000045170BC4FF4001C1CEB410F38BF704792
:101970000020090D090570471CEB410F10D252EAF7
:1019800043060BD0BCEB410F05D80C0DAB43661ED4
:10199000342EB5DD02E0AB438018594170BC70476E
:1019A00070BC704770470000AE11FF1F14000000AC
:1019B0000000000000000000000000000000000027
:1019C00000000000000000000000000000004E6F5A
:1019D0006E4D61736B61626C65000000004861725E
:1019E000644661756C740000000000004D656D4D2B
:1019F000616E6167656D656E740000427573466166
:101A0000756C740000000000000055736167654646
:101A100061756C7400000000000000000000000010
:101A200000000000000000000000000000000000B6
:101A300000000000000000000000000000000000A6
:101A40000000000000000000000000000000000096
:101A50000000000000535643616C6C000000000061
:101A60000000000044656275674D6F6E69746F72A7
:101A70000000000000000000000000000000000066
:101A8000000050656E645356000000000000000026
:101A9000005379735469636B00000000000000007C
:101AA000444D4130000000000000000000000044F0
:101AB0004D41310000000000000000000000444DD6
:101AC00041320000000000000000000000444D41D1
:101AD000330000000000000000000000444D4134CD
:101AE0000000000000000000000000444D413500EF
:101AF00000000000000000000000444D41360000DE
:101B0000000000000000000000444D4137000000CC
:101B10000000000000000000444D413800000000BB
:101B200000000000000000444D41390000000000AA
:101B3000000000000000444D413130000000000072
:101B40000000000000444D41313100000000000061
:101B500000000000444D4131320000000000000050
:101B6000000000444D41313300000000000000003F
:101B70000000444D4131340000000000000000002E
:101B800000444D413135000000000000000000001D
:101B9000444D415F4572726F720000000000004DBD
:101BA000434D00000000000000000000000046540B
:101BB000464C00000000000000000000005265617B
:101BC000645F436F6C6C6973696F6E004C56445F61
:101BD0004C565700000000000000004C4C5700001D
:101BE000000000000000000000005761746368649A
:101BF0006F6700000000000000524E470000000028
:101C000000000000000000004932433000000000E6
:101C100000000000000000493243310000000000D5
:101C20000000000000005350493000000000000098
:101C30000000000000535049310000000000000087
:101C40000000000053504932000000000000000076
:101C500000000043414E305F4F525F4D425F62755E
:101C6000660043414E305F4275735F4F6666000009
:101C70000043414E305F4572726F720000000000F9
:101C800043414E305F54785F5761726E696E6743AF
:101C9000414E305F52785F5761726E696E674341A3
:101CA0004E305F57616B655F557000000052657381
:101CB0006572766564353100000000005265736519
:101CC000727665643532000000000043414E315F9A
:101CD0004F525F4D425F6275660043414E315F4235
:101CE00075735F4F666600000043414E315F457279
:101CF000726F72000000000043414E315F54785F04
:101D00005761726E696E6743414E315F52785F571B
:101D100061726E696E6743414E315F57616B655FFB
:101D20005570000000526573657276656435390040
:101D300000000000526573657276656436300000FD
:101D400000000055415254305F52585F5458000013
:101D5000000055415254305F4552520000000000CF
:101D60000055415254315F52585F545800000000F2
:101D700055415254315F4552520000000000005559
:101D8000415254325F52585F545800000000554190
:101D90005254325F4552520000000000005541523B
:101DA00054335F52585F545800000000554152545C
:101DB000335F455252000000000000554152543438
:101DC0005F52585F54580000000055415254345F30
:101DD00045525200000000000055415254355F52F8
:101DE000585F54580000000055415254355F455229
:101DF0005200000000000041444330000000000099
:101E000000000000000041444331000000000000D9
:101E10000000000000434D503000000000000000B2
:101E200000000000434D50310000000000000000A1
:101E3000000000434D503200000000000000000090
:101E4000000046544D30000000000000000000007B
:101E50000046544D3100000000000000000000006A
:101E600046544D3200000000000000000000004316
:101E70004D5400000000000000000000000052541B
:101E800043000000000000000000000000526573E5
:101E900065727665643833000000000050495430A4
:101EA0000000000000000000000000504954310014
:101EB0000000000000000000000050495432000003
:101EC00000000000000000000050495433000000F2
:101ED00000000000000000005044423000000000FC
:101EE00000000000000000555342300000000000D8
:101EF000000000000000555342444344000000002D
:101F00000000000000454E45545F313538385F54BD
:101F1000696D6572454E45545F5472616E736D69AB
:101F2000740000454E45545F5265636569766500EF
:101F30000000454E45545F4572726F72000000000C
:101F40000049325330000000000000000000000093
:101F5000534448430000000000000000000000441B
:101F60004143300000000000000000000000444138
:101F700043310000000000000000000000545349FD
:101F80003000000000000000000000004D4347004A
:101F900000000000000000000000004C5054696D7B
:101FA00065720000000000000000526573657276E3
:101FB000656431303200000000504F52544100003F
:101FC0000000000000000000504F5254420000008A
:101FD00000000000000000504F5254430000000079
:101FE000000000000000504F525444000000000068
:101FF0000000000000504F52544500000000000057
:1020000000000000526573657276656431303800F7
:1020100000000052657365727665643130390000E6
:1020200000005265736572766564313130000000DE
:1020300000526573657276656431313100000000CD
:10204000526573657276656431313200000000526A
:102050006573657276656431313300000000526546
:102060007365727665643131340000000052657327
:102070006572766564313135000000005265736524
:102080007276656431313600000000526573657206
:1020900076656431313700000000526573657276F1
:1020A00065643131380000000052657365727665F1
:1020B000643131390000000000F00F4040F00F4063
:1020C00080F00F40C0F00F4000F10F4066000A1D85
:1020D00032000701640007106E000406780004084F
:1020E0008200040A8C00040C9600040EA000041068
:1020F000AA000412B4000414BE000416C800041898
:10210000D200041ADC00041CE100041DE600041ED9
:10211000EB00041FF4000317FA0003181301010673
:102120002C010214000109080090044000A00440A2
:1021300000B0044000C0044000D0044000C0024091
:1021400000D0024000C00A4000A0064000B0064097
:1021500000C0064000D0064000A00E4000B00E4077
:102160006B6C6D6E6A674E4F4001F000010000001D
:10217000343536373443101001000000344310105A
:1021800001000000010000000DC1110009030CD086
:102190001240173F185019031A783200A00A63E062
:1021A000ACFF650C6600670029142C1E2A007E0C0B
:1021B0007F16802A814E8261836F847B8586868E1E
:1021C000879788A489AF8AC58BD78CE88D204A0071
:1021D000491347084B144C17460522992303A604BC
:1021E0009B009CFFAB069E119F0200003100000087
:1021F000E91EFF1F1404FF1FE01EFF1FDC1EFF1F50
:10220000DE1EFF1F2814FF1F2C14FF1F00000000FC
:1022100000000000000000000B0000005A006600F3
:10222000000000000000000000000000640000004A
:102230005A00000000000000000000000000000044
:10224000640000005A0011000000000000000000BF
:10225000000000002C0100005A00220000000000D5
:1022600000000000000000002C0100005A003300B4
:102270000000000000000000000000000400010059
:102280005A004400000000000000000000000000B0
:10229000040001005A005500020401018C1EFF1FBA
:1022A000DC1EFF1F8C1EFF1F8C1EFF1F8C1EFF1FBE
:1022B0003D0DFF1F240DFF1F000000000000000067
:1022C000000000000000000000000000000000000E
:1022D00000000000000000002DE9FC4F97B0040052
:1022E0000D00DFF83C0600684FF47A7148431899F6
:1022F000B0FBF1F0019006A8DFF828164022FEF7A7
:1023000069FF05A8DFF820160A6802600020029025
:102310005FF0FF3964B2002C41D1DFF8100600688D
:1023200050F48050DFF8041608604FF400710F205D
:1023300000F008FB4FF40071102000F003FB4FF495
:102340000071112000F0FEFAE80704D54FF4007187
:102350000E2000F0F7FAA80704D54FF400714320CF
:1023600000F0F0FA680704D54FF40071422000F045
:10237000E9FA280704D54FF40071412000F0E2FA91
:10238000E80604D54FF40071402000F0DBFAA806FF
:102390006AD54FF44071372000F0D4FA64E064B29B
:1023A000012C33D1DFF88405006850F40050DFF8C9
:1023B0007C1508604FF400712B2000F0C3FA4FF435
:1023C0000071302000F0BEFA4FF40071312000F0AF
:1023D000B9FAE80704D54FF400712A2000F0B2FAE8
:1023E000A80704D54FF40071802000F0ABFA68070D
:1023F00004D54FF40071852000F0A4FA280733D5E6
:102400004FF40071862000F09DFA2DE064B2022C9A
:1024100025D1DFF81C05006850F48050DFF8101556
:1024200008604FF40071352000F08CFA4FF4007111
:10243000362000F087FA4FF40071372000F082FA5E
:10244000E80704D54FF40071342000F07BFAA807A8
:102450000AD54FF400716F2000F074FA04E07B217C
:10246000DFF8D00400F0DBFA40F6014064B2DFF898
:10247000C81451F824100860DFF8C00464B2DFF813
:10248000B81451F82410C8629DF95C00002840F08F
:10249000A280DFF8AC0464B2DFF89C1451F8241079
:1024A000086000200600F6B2102E21DA0020070096
:1024B000FFB2042F1ADAF6B206A850F82600FFB2CF
:1024C00005A9795C484382460198BAEB000000F008
:1024D00039FB8046C84507D2C146F6B20296FFB224
:1024E0000397B9F1000F03D07F1CE1E7761CDAE710
:1024F000DFF82C0400684FF47A714843029906AA69
:1025000052F82110039A05ABD25C5143B0FBF1F0B5
:102510000490DFF80C0400684FF47A714843049982
:10252000B0FBF1F0400801905FF0FF3081460F20D2
:102530008DF8010003208DF80200002083465FFA29
:102540008BFBBBF1100F2ADA01201BF1010188403F
:1025500082460198B0FBFAF0401E40088DF800005A
:102560009DF80000042817DA9DF800004000401C88
:1025700000FB0AFA0198BAEB000000F0E3FA80468B
:10258000C84509D2C1468DF801B09DF800008DF80C
:102590000200B9F1000F02D01BF1010BCFE7039845
:1025A000000410F44030029911F00F0108439DF827
:1025B0000110090311F4704108439DF802108905C8
:1025C00011F44001084350F0605064B2DA4951F808
:1025D0002410C86006E05FF0785064B2D64951F824
:1025E0002410C86064B2D44850F824000068400841
:1025F000400064B2D04951F824100860049819B022
:10260000BDE8F08FF0B4049C0025CC4E40B2CA4F18
:1026100057F82070FE6240B2C74E56F82060366808
:1026200056F4406640B2C44F57F820703E6040B246
:10263000C14E56F82060F66AB603E6D4002635008F
:10264000661EB5422FD249B20E0416F47C16AF5C5A
:102650003E4356F0004640B2B74F57F820707E63B5
:1026600040B2B54E56F82060F66AB603F8D5002B96
:1026700006D040B2B04E56F82060B66BEE5404E07F
:1026800040B2AD4E56F82060B66B40B2AA4E56F836
:102690002060F66A56F4003640B2A74F57F8207013
:1026A000FE626D1CCCE749B20E0416F47C16AF5CDA
:1026B0003E4356F0006640B29F4F57F820707E634D
:1026C00040B29D4E56F82060F66AF600F8D540B24A
:1026D000994E56F82060F66AB603F8D5002B06D05E
:1026E00040B2954E56F82060B66BEE5404E040B20E
:1026F000914E56F82060B66B40B28F4E56F820606F
:10270000F66A56F4003640B28B4F57F82070FE62DE
:10271000F0BC70472DE9F041069C079D089E099F7B
:102720005FF0000CDFF814E240B2DFF80C8258F8DA
:102730002080C8F82CE040B2DFF8FCE15EF820E031
:10274000DEF800E05EF4406E40B2DFF8EC8158F84D
:102750002080C8F800E040B2DFF8DCE15EF820E05D
:10276000DEF82CE05FEA8E3EDCD45FF0000EF4462B
:10277000B44541D249B25FEA014E1EF47C1E1CF8FA
:10278000028058EA0E0E5EF0004E40B2DFF8A881DB
:1027900058F82080C8F834E040B2DFF89CE15EF8D9
:1027A00020E0DEF82CE05FEA8E3EF5D5002B09D064
:1027B00040B2DFF884E15EF820E0DEF838E00CF8A3
:1027C00003E006E040B2DFF870E15EF820E0DEF8FA
:1027D00038E040B2DFF860E15EF820E0DEF82CE09F
:1027E0005EF4003E40B2DFF8508158F82080C8F80F
:1027F0002CE01CF1010CBBE75FF0000EF446B7F1D2
:10280000010EF44541D249B25FEA014E1EF47C1E2E
:102810001CF8048058EA0E0E5EF0004E40B2DFF85D
:10282000188158F82080C8F834E040B2DFF808E199
:102830005EF820E0DEF82CE05FEA8E3EF5D5002D54
:1028400009D040B2DFF8F0E05EF820E0DEF838E0D2
:102850000CF805E006E040B2DFF8DCE05EF820E0CE
:10286000DEF838E040B2DFF8D0E05EF820E0DEF8D5
:102870002CE05EF4003E40B2DFF8BC8058F82080C7
:10288000C8F82CE01CF1010CB9E749B25FEA014E2F
:102890001EF47C1E1CF8048058EA0E0E5EF0006EDA
:1028A00040B2DFF8948058F82080C8F834E040B295
:1028B000DFF884E05EF820E0DEF82CE05FEACE0E80
:1028C000F5D540B2DFF870E05EF820E0DEF82CE0ED
:1028D0005FEA8E3EF5D5002D09D040B2DFF858E012
:1028E0005EF820E0DEF838E00CF805E006E040B2E3
:1028F000DFF844E05EF820E0DEF838E040B2DFF8D0
:1029000038E05EF820E0DEF82CE05EF4003E40B2F5
:10291000DFF8248058F82080C8F82CE0BDE8F0816A
:102920003814FF1FFC620000FC6600003C8004407D
:1029300030800440A0640000A40BFF1F00000A1AAE
:1029400000003F8010B4294A12684FF40073C0B2EF
:102950004409A3401A43254B1A60C0B24211244BCC
:1029600053F82220012310F01F04A340C2F8A03026
:10297000C0B210F01F02C0B243111D4C54F82330F6
:1029800043F8221010BC704710B4184A12684FF474
:102990000073C0B24409A3401A43144B1A60C0B27A
:1029A0004211134B53F82220012310F01F04A340BF
:1029B000C2F8A03031F4E061C0B210F01F02C0B222
:1029C00043110B4C54F8233053F8222012F4E062E8
:1029D0001143C0B210F01F02C0B24311044C54F8AE
:1029E000233043F8221010BC7047000038800440A8
:1029F000900BFF1FDFF800F0710DFF1FDFF800F0F4
:102A0000950DFF1FBFF34F8F4648006810F4E0603C
:102A10004549084343490860BFF34F8FFEE738B587
:102A200004000D00002000F091F82A0021003F482A
:102A300000F0E2F8002000F0C4F84FF47A7000F0E3
:102A400008F9F2E738B504000D00210049B203206F
:102A500000F02CFA200032BD10B50024042000F054
:102A60003FFA042000F072FA002841D1002000F063
:102A70006DF8042000F06AFA012801D10120040059
:102A8000002000F09EF82A4800F0B6F84FF4FA70E3
:102A900000F0DFF8E4B2012CEBD1042000F056FA8C
:102AA0000028E6D1042000F051FA002806D10020C9
:102AB00000F087F8642000F0CCF8F3E7042000F081
:102AC00045FA012806D1002000F07BF8322000F002
:102AD000C0F8F3E7174800F08FF8FFF78BFF64208A
:102AE00000F0B7F80020FFF789FFFFF78BFFC0E782
:102AF00010BD10B510480468012000F027F801202F
:102B000000F05FF8E4B20F200C4900FB0412E4B2BD
:102B100021000B4800F070F84FF47A7000F099F83B
:102B2000EDE700000CED00E00400FA053C65000054
:102B3000A4660000B865000004ED00E01804FF1F63
:102B40003C630000002848BF4042704710B50400B5
:102B500064B2042C07DA0122012164B22548205C0A
:102B600000F0CEFA0EE0042004002000441E40B223
:102B7000002807D00122012164B21E48205C00F029
:102B8000BFFAF2E710BD38B504000D0064B2042CA2
:102B900007DA2900C9B264B21648205C00F007FBCE
:102BA0000EE0042004002000441E40B2002807D09C
:102BB0002900C9B264B20F48205C00F0F8FAF2E7CD
:102BC00031BD10B5040064B2042C05DA64B20948C2
:102BD000205C00F025FB0CE0042004002000441ED3
:102BE00040B2002805D064B20248205C00F018FB17
:102BF000F4E710BDD80BFF1F0EB400B582B003A9D7
:102C00000091024600AB0121034878440A30FDF7E9
:102C100003FC06BC5DF810FB693A000010B5040027
:102C2000002C15D0B4F1807F03D329210F48FFF782
:102C3000F6FE00200E4908600E48046000200E4990
:102C4000086005200A49086009480068C003FBD5F0
:102C500010BD10B504002000441E002804D0074811
:102C60000068FFF7DBFFF6E710BD0000A863000077
:102C700010E000E014E000E018E000E03014FF1F76
:102C80002DE9F84304000D0064B2002C08D0022C9A
:102C90002CD018D3042C4FD03BD3052C5FD071E03F
:102CA000DFF82402006850F48060DFF81C1208602E
:102CB0004FF440716620FFF745FE4FF440716720E6
:102CC000FFF740FE5EE0DFF80002006850F40060AD
:102CD000DFF8F41108604FF440714320FFF732FE33
:102CE0004FF440714420FFF72DFE4BE0DFF8D80190
:102CF000006850F48050DFF8D01108604FF4407144
:102D00006320FFF71FFE4FF440716220FFF71AFEA9
:102D100038E0DFF8B401006850F40050DFF8A81183
:102D200008604FF440715020FFF70CFE4FF44071E3
:102D30005120FFF707FE25E0DFF89001006850F40E
:102D40008060DFF8881108604FF440714E20FFF773
:102D5000F9FD4FF440714F20FFF7F4FD12E0DFF86A
:102D60006C01006850F40060DFF8601108604FF4F7
:102D700040718920FFF7E6FD4FF440718820FFF78E
:102D8000E1FDFFE764B2DFF8480150F82400C078A5
:102D900010F0F30064B2DFF8381151F82410C87055
:102DA00064B2DFF82C0150F82400807864B2DFF8B8
:102DB000201151F82410887064B2002C02D064B243
:102DC000012C07D1DFF80C0100684FF47A714843F9
:102DD000814606E0DFF8000100684FF47A7148434D
:102DE00081462801B9FBF0F00600B6B2B6F5005FE7
:102DF00002DB41F6FF700600B9FBF5F0B6B2B0EBAE
:102E000006100700BFB2202F04DBDC21DFF8CC0066
:102E1000FFF705FE64B2DFF8B80050F82400007830
:102E200010F0E0008046B6B2300A10F01F0050EA01
:102E3000080064B2DFF8981051F82410087064B2EA
:102E4000DFF88C0050F82400467064B2DFF8800090
:102E500050F82400807A10F0E000804617F01F0040
:102E600050EA080064B2DFF8681051F82410887244
:102E700064B2DFF85C0050F82400007C50F0880059
:102E800064B2DFF84C1051F82410087464B2DFF813
:102E9000400050F82400C07850F00C0064B2DFF815
:102EA000301051F82410C870BDE8F18340B2084AD0
:102EB00052F8202012791206F8D540B2044A52F88E
:102EC0002020D171704700003480044028800440E5
:102ED000B00BFF1F3014FF1F3814FF1FC864000021
:102EE00010B5040064B2082C0DDA0022002164B28F
:102EF0007D48205C00F004F9032164B27A48205C2C
:102F0000FFF742FD14E0082004002000441E40B2F8
:102F100000280DD00022002164B27348205C00F02C
:102F2000EFF8032164B27048205CFFF72DFDECE759
:102F300010BD10B5040064B26B48205C00F08CF941
:102F4000002801D1002000E0012010BD10B50400D0
:102F5000200040B2FFF7EDFF00280AD10A20FFF75A
:102F600078FE200040B2FFF7E4FF002801D10020E6
:102F700000E0012010BD01B45C490978022929D084
:102F80009DF800105A4A12785A4B03F812109DF817
:102F90000110574A1278574B13EB420251705449B3
:102FA0000978491C524A117051490978142902DBE9
:102FB00000214F4A11704E49097808004E4909789E
:102FC000C0B2884203D10221484A117002E00121B7
:102FD000464A117001B0704701004448007800284B
:102FE00001D1002028E044480078424B13F810003B
:102FF0000870414800783F4B13EB40004078487020
:103000003D480078401C3C4B18703B480078142821
:1030100002DB0020384B1870354800780200364833
:103020000078D2B2904203D10020304B187002E0F9
:1030300001202E4B18700120704710B582B000207F
:10304000040064B2082C4EDA200040B2FFF771FF92
:10305000002835D164B22948205C401C64B227495D
:10306000605464B22548205C02283ADB64B22348ED
:10307000205C022808D18DF8004000208DF8010066
:103080000098FFF778FF2CE064B21C48205C3328DE
:1030900027DB64B21948205C33280CD18DF800403E
:1030A00002208DF801000098FFF765FF022064B24E
:1030B0001249605415E0022064B21049605410E0D7
:1030C00064B20E48205C022807DB8DF80040012026
:1030D0008DF801000098FFF74EFF002064B2074909
:1030E0006054641CADE713BDC80BFF1FE31EFF1F38
:1030F000E21EFF1F3C14FF1FE11EFF1F6414FF1F91
:1031000070B504000D0016004FF480712000C0B2AD
:10311000FFF718FC6DB2002D11D1E4B260115D49CA
:1031200051F82000E4B261115A4A52F8211049695D
:10313000012214F01F039A409143416136E0E4B24A
:103140006011544951F82000E4B26111514A52F81B
:1031500021104969012214F01F039A401143416173
:10316000F6B2002E11D1E4B260114A4951F82000A4
:103170000068012114F01F0291408843E4B26111FC
:10318000444A52F82110086010E0E4B2601141494D
:1031900051F820000068012114F01F0291400843FB
:1031A000E4B261113B4A52F82110086070BD38B595
:1031B00004000D00E4B26011364951F82000406966
:1031C00014F01F01C840C00703D463213248FFF741
:1031D00026FCEDB2002D11D1E4B260112D4951F859
:1031E00020000068012114F01F0291408843E4B2DE
:1031F0006111284A52F82110086010E0E4B2601111
:10320000244951F820000068012114F01F02914068
:103210000843E4B261111F4A52F82110086031BD21
:1032200010B50400E4B260111A4951F82000406959
:1032300014F01F01C840C00703D47B211648FFF7D4
:10324000EEFBE4B26011134951F82000012114F0A3
:103250001F029140C16010BD10B50400E4B26011BE
:103260000C4951F82000406914F01F01C840C00704
:1032700003D58C210848FFF7D2FBE4B26011054961
:1032800051F82000006914F01F01C84010F001003F
:1032900010BD0000200BFF1F506400000000000064
:1032A0000000000000000000000000000000183CCA
:1032B0003C3C1818180018180000000000666666EC
:1032C0002400000000000000000000000000006C6E
:1032D0006CFE6C6C6CFE6C6C0000000018187CC6F8
:1032E000C2C07C0686C67C181800000000000000E2
:1032F000C2C60C183060C686000000000000386CA2
:103300006C3876DCCCCCCC7600000000003030305D
:1033100060000000000000000000000000000C1829
:10332000303030303030180C000000000000301811
:103330000C0C0C0C0C0C18300000000000000000FD
:1033400000663CFF3C66000000000000000000003A
:103350000018187E1818000000000000000000008F
:1033600000000000001818183000000000000000E5
:10337000000000FE0000000000000000000000004F
:10338000000000000000181800000000000000000D
:1033900002060C183060C0800000000000007CC6EF
:1033A000C6CED6D6E6C6C67C00000000000018389F
:1033B000781818181818187E0000000000007CC645
:1033C000060C183060C0C6FE0000000000007CC67D
:1033D00006063C060606C67C0000000000000C1C29
:1033E0003C6CCCFE0C0C0C1E000000000000FEC06B
:1033F000C0C0FC0E0606C67C00000000000038605D
:10340000C0C0FCC6C6C6C67C000000000000FEC6E8
:1034100006060C18303030300000000000007CC67A
:10342000C6C67CC6C6C6C67C0000000000007CC6BE
:10343000C6C67E0606060C780000000000000000EC
:10344000181800000018180000000000000000001C
:1034500018180000001818300000000000000006D6
:103460000C18306030180C0600000000000000004E
:103470000000FE0000FE00000000000000000060F0
:1034800030180C060C1830600000000000007CC6EC
:10349000C60C181818001818000000000000007C66
:1034A000C6C6DEDEDEDCC07C000000000000103896
:1034B0006CC6C6FEC6C6C6C6000000000000FC669C
:1034C00066667C66666666FC0000000000003C667E
:1034D000C2C0C0C0C0C2663C000000000000F86C62
:1034E0006666666666666CF8000000000000FE66B0
:1034F00062687868606266FE000000000000FE6698
:1035000062687868606060F00000000000003C665F
:10351000C2C0C0DEC6C6663A000000000000C6C6D3
:10352000C6C6FEC6C6C6C6C60000000000003C18DF
:10353000181818181818183C0000000000001E0C7D
:103540000C0C0C0CCCCCCC78000000000000E66623
:103550006C6C78786C6666E6000000000000F06035
:1035600060606060606266FE000000000000C6EE01
:10357000FEFED6C6C6C6C6C6000000000000C6E6EF
:10358000F6FEDECEC6C6C6C6000000000000386CDF
:10359000C6C6C6C6C6C66C38000000000000FC6681
:1035A00066667C60606060F00000000000007CC621
:1035B000C6C6C6C6C6D6DE7C0C0E00000000FC6681
:1035C00066667C6C666666E60000000000007CC6ED
:1035D000C660380C06C6C67C0000000000007E7E77
:1035E0005A1818181818183C000000000000C6C629
:1035F000C6C6C6C6C6C6C67C000000000000C6C659
:10360000C6C6C6C6C66C3810000000000000C6C69C
:10361000C6C6C6D6D6FE6C6C000000000000C6C64A
:103620006C6C38386C6CC6C6000000000000666622
:1036300066663C181818183C000000000000FEC622
:10364000860C183060C2C6FE0000000000003C304E
:10365000303030303030303C00000000000000805E
:10366000C0E070381C0E06020000000000003C0C98
:103670000C0C0C0C0C0C0C3C0000000010386CC640
:10368000000000000000000000000000000000003A
:10369000000000000000000000FF000030301800B3
:1036A000000000000000000000000000000000001A
:1036B00000780C7CCCCCCC76000000000000E060F0
:1036C00060786C66666666DC000000000000000042
:1036D000007CC6C0C0C0C67C0000000000001C0CFE
:1036E0000C3C6CCCCCCCCC76000000000000000080
:1036F000007CC6FEC0C0C67C000000000000386C24
:103700006460F060606060F0000000000000000095
:103710000076CCCCCCCCCC7C0CCC78000000E0602B
:10372000606C7666666666E60000000000001818A9
:10373000003818181818183C000000000000060691
:10374000000E06060606060666663C000000E060FF
:1037500060666C78786C66E600000000000038183F
:10376000181818181818183C000000000000000075
:1037700000ECFED6D6D6D6D6000000000000000031
:1037800000DC6666666666660000000000000000F9
:10379000007CC6C6C6C6C67C000000000000000053
:1037A00000DC66666666667C6060F0000000000013
:1037B0000076CCCCCCCCCC7C0C0C1E0000000000E5
:1037C00000DC7662606060F0000000000000000035
:1037D000007CC660380CC67C000000000000103081
:1037E00030FC30303030361C00000000000000009B
:1037F00000CCCCCCCCCCCC7600000000000000008B
:103800000066666666663C18000000000000000066
:1038100000C6C6C6D6D6FE6C000000000000000040
:1038200000C66C3838386CC600000000000000008C
:1038300000C6C6C6C6C6C67E060CF800000000005C
:1038400000FECC183060C6FE0000000000000E181C
:10385000181870181818180E00000000000018182A
:103860001818001818181818000000000000701828
:1038700018180E181818187000000000000076DCE8
:103880000000000000000000000000000000000038
:1038900010386CC6C6C6FE000000000010B582B02D
:1038A00000200400E4B2072C2BDA00A9200040B26B
:1038B00000F054F80098E4B21421DFF8A02501FBD1
:1038C000042108600098E4B21421DFF8902501FB80
:1038D00004214860E4B21420DFF8801500FB0410D6
:1038E000C068E4B21421DFF8742501FB0421896863
:1038F000884204D23D21DFF86805FFF790F8641C88
:10390000D0E713BD40B2032806DA40B2DFF85425F1
:1039100052F82020117012E040B2052806DA40B2B9
:10392000DFF8402552F82020118008E040B2072837
:1039300005DA40B2DFF82C2552F82020116040B2A1
:103940001422DFF8183510FB0232116040B2142245
:10395000DFF8083510FB02325160704740B203288F
:1039600007DA40B2DFF8FC2452F8202012780A600F
:1039700014E040B2052807DA40B2DFF8E82452F834
:10398000202012880A6009E040B2072806DA40B217
:10399000DFF8D02452F8202012680A60704710B572
:1039A0000400DFF8C4040078072804DB7121DFF885
:1039B000B004FFF734F864B2042C08D0C0F0EE80F5
:1039C000062C7AD03ED3072C00F0B380E6E0DFF877
:1039D000980400781421DFF8842401FB002000689B
:1039E000DFF8841409781422DFF8703402FB013107
:1039F000C968884213D2DFF8700400781421DFF818
:103A00005C2401FB00200068401CDFF85C1409788E
:103A10001422DFF8483402FB0131086011E0DFF8BE
:103A2000480400781421DFF8342401FB002080686A
:103A3000DFF8341409781422DFF8203402FB013156
:103A40000860ABE0DFF8200400781421DFF80C24D4
:103A500001FB00208068DFF8101409781422DFF8D9
:103A6000FC3302FB01310968884213D2DFF8F80306
:103A700000781421DFF8E42301FB00200068401ED9
:103A8000DFF8E41309781422DFF8D03302FB0131A8
:103A9000086011E0DFF8D00300781421DFF8BC23C0
:103AA00001FB0020C068DFF8C01309781422DFF89A
:103AB000AC3302FB0131086070E0DFF8AC03007842
:103AC0001421DFF8982301FB0020C068DFF8981369
:103AD00009781422DFF8843302FB01310968401AA7
:103AE0000B2813D3DFF8800300781421DFF86C2350
:103AF00001FB002000680A30DFF86C1309781422FB
:103B0000DFF8583302FB0131086011E0DFF8580399
:103B100000781421DFF8442301FB00208068DFF8DF
:103B2000481309781422DFF8343302FB01310860AE
:103B300034E0DFF8340300781421DFF8202301FBA0
:103B400000200068DFF8201309781422DFF80C3316
:103B500002FB01318968401A0B2810D3DFF80803F3
:103B600000781421BD4A01FB002000680A38BE49D4
:103B700009781422B94B02FB013108600DE0BA4804
:103B800000781421B54A01FB0020C068B6490978C5
:103B90001422B24B02FB01310860FFE7B248007803
:103BA00000F092F810BD38B50400AF48007807283F
:103BB00003DBAD21AA48FEF732FFAB48057864B2BB
:103BC000002C05D0022C1DD00FD3032C27D033E0BE
:103BD000A5480078401CA4490870A348007807282D
:103BE00002DB0020A049087027E09F480078401EB3
:103BF0009D4908709C480078072802DB06209A49F6
:103C000008701AE098480078801C97490870964818
:103C10000078072802DB0020934908700DE09248E5
:103C20000078801E904908708F480078072802DBD2
:103C300006208D49087000E007E02800C0B200F0BF
:103C400043F88948007800F03FF831BD80B58648D8
:103C50000078072803DBE2218148FEF7E0FE824876
:103C6000007814217D4A01FB002000687E49097814
:103C700014227A4B02FB01314968884203D07A480A
:103C8000007800F09DF87848007800F01DF801BD3C
:103C900080B575480078072803DBF0217048FEF7EF
:103CA000BEFE7148007814216C4A01FB0020406878
:103CB0006D4909781422694B02FB013108606A489A
:103CC000007800F001F801BDF0B583B004000025D4
:103CD00065480078072802DAE4B2082C04DB4FF4C8
:103CE00088715F48FEF79BFEE4B2072C03D10620E3
:103CF0000500002004005C480078E4B284421AD138
:103D0000E4B21420554900FB04100068E4B2142109
:103D1000524A01FB04214968884205D11F2007004F
:103D20004FF6FF70060020E04FF4FC6007004FF6EE
:103D3000FF70060019E0E4B21420484900FB0410AB
:103D40000068E4B21421454A01FB04214968884215
:103D500005D11F2007004FF47840060005E04FF41E
:103D6000FC6007004FF478400600E4B214203B49A1
:103D700000FB041000690190B6B200963B009BB2B4
:103D80000522E4B21420354900FB041001680198B3
:103D900000F0F0F8641C2800451EC0B20028AAD12B
:103DA000F7BD38B504000D0000A9200040B2FFF7B0
:103DB000D5FD64B2C5F802400098C5F8060031BDD3
:103DC00070B588B0040028480078072802DAE4B209
:103DD000082C04DB4FF4A7712148FEF720FE0025D4
:103DE000E4B2072C03D10620050000200400E4B251
:103DF00014201A4900FB041040680600E4B21420A5
:103E0000164900FB04100168200040B2FFF77AFD5C
:103E100000A9200040B2FFF7C4FF00A9022000F073
:103E20008FF900F0F8FB0028FBD000F0F4FB01282C
:103E300007D1E4B21420094900FB041046600020B9
:103E400006E0641C2800451EC0B20028CFD1012026
:103E500008B070BD0548007870470000740CFF1F63
:103E6000D4630000580CFF1FEA1EFF1FE91EFF1F4E
:103E700010B582B03C48046800F0BEFC00F088FF3A
:103E8000ADF8000000F081FFADF802004FF4784279
:103E90000099200000F001F813BDF2B504001500F0
:103EA0000099200000F022FFBDF80000BDF80210CC
:103EB000484307002C205FF0C04108800020060026
:103EC000BE4204D25FF0D0400580761CF8E7F1BD19
:103ED0002DE9F14781B00C0015001E002348D0F8F1
:103EE00000A000F055FF0838BDF80410884206DB3A
:103EF00000F04BFF1038BDF80610884200DA2FE0C2
:103F00005146019800F0F2FE2C205FF0C04108807D
:103F1000002081465FFA89F9B9F1100F20DAE4B286
:103F2000200150FA89F012494018B0F5007000786D
:103F30000700002080465FFA88F8B8F1080F0CDA15
:103F4000380603D55FF0D040058002E05FF0D04036
:103F500006807F0018F10108EDE719F10109D9E7A2
:103F6000BDE8F38700000000006700000467000060
:103F70009C3200002DE9F14382B0894615001E00F5
:103F80000A9C4F465FF00008BDF80A00ADF8060035
:103F9000B9F1000F1CD123009BB2320092B2302144
:103FA0000298FFF795FFBDF808000830ADF808004B
:103FB0001020ADF80200EDB2681E80B2C000ADF86E
:103FC0000000220092B200990298FFF766FF4EE0CF
:103FD000002F05D00A20B7FBF0F718F10108F7E72A
:103FE0005FFA88F8EDB2A84500D3A8465FFA88F8D2
:103FF00047465FFA88F8B8F1000F1FD0BDF80800F7
:104000005FFA88F81FFA88F810EBC8000838ADF896
:104010000400B8F101080A2023009BB2320092B2DA
:10402000B9FBF0F100FB119010F13001C9B2019819
:10403000FFF74EFF0A20B9FBF0F9DAE7EDB2AF4225
:1040400015D0EDB2E81B80B2C000ADF80000BDF89D
:104050000800F90011FA80F0ADF808001020ADF862
:104060000200220092B200990298FFF716FFBDE805
:10407000F7832DE9FB4F04009246D34601992000B7
:1040800000F034FE2C205FF0C04108800020804604
:10409000BDF806001FFA88F880453FD21FFA88F85D
:1040A000BDF80A0000FB08F0BDF8061090FBF1F027
:1040B000ADF80000BDF80000BDF808104843060048
:1040C00000200700BDF80400BFB2874223D2BFB270
:1040D000BDF8080000FB07F0BDF8041090FBF1F0FC
:1040E000814616FA89F00500E80810F80B00012156
:1040F00015F00702D2F107029140084205D14FF6B0
:10410000FF705FF0D041088003E000205FF0D041F5
:1041100008807F1CD6E718F10108B9E7BDE8F78FE2
:1041200004200100481E002909D0594951F82010E7
:10413000233149094901574A42F82010F1E77047F5
:1041400038B504000D0064B2042C03DB282152486A
:10415000FEF765FC2C7064B2E043687064B24C48B2
:1041600050F82400401964B2E143817064B24848B9
:1041700050F824004019C47064B2454850F8240037
:10418000011D280000F01CFA0028F5D0032032BDE4
:104190002DE9F84F04000D00AA462021504600F0FA
:1041A000AAF98146B9F1000F01D104206EE09AF915
:1041B000000006003000C0B2042866DA9AF8010058
:1041C000F143C9B2884260D176B2032E5DD076B297
:1041D000304850F826008346D94524D2BBEB09006D
:1041E000070000A976B22A4850F82600001DB0EB5F
:1041F000090000F0A6FA0028F3D0BDF80000F14352
:1042000076B2320252FA81F189B28842C4D1C846EC
:1042100018EB0A0A3900504600F06DF98046B7EBFA
:104220000807002FF4D176B2194850F8260040193B
:104230008078F143C9B2884227D176B2144850F849
:1042400026004019C0783100C9B288421DD12670BD
:1042500094F90000022816D1D5F802000F49086031
:104260000E48006807280CD2D5F806100B480068E5
:1042700040B2FFF747FB09480068C0B2FFF724FDD2
:1042800001E0062002E0052000E00620BDE8F28FF4
:10429000CC660000741EFF1F78630000881EFF1F9D
:1042A00080B5DFF81C35002201210020FEF714F84C
:1042B000002201219C20FEF723FF002200219B20E9
:1042C000FEF71EFFDFF8FC149B20FEF75DFB0020CD
:1042D000DFF8F41408600321232000F035F82821CA
:1042E000252000F031F80F21262000F02DF80121C3
:1042F000212000F029F80121222000F025F80522D4
:10430000DFF8C8142A2000F046F82021312000F000
:104310001BF8FF21E22000F017F80522DFF8B014A7
:10432000302000F038F80F21242000F00DF8FF2194
:10433000E12000F009F800F092F80120DFF888147D
:10434000086000F050F802BD30B583B004000D00E5
:104350008DF804408DF805500220009001AB01AAB1
:1043600001210020FEF74EF99DF804003EBD30B556
:1043700083B004000D008DF804400220009001ABD2
:1043800001AA01210020FEF73DF99DF805002870E3
:104390009DF804003EBD31B584B00C0015000395B6
:1043A0000120029000200190009404AB04AA012196
:1043B0000020FEF7AFF99DF8100005B030BD31B513
:1043C00084B00C0015000395012002900194002098
:1043D000009004AB04AA01210020FEF79BF99DF890
:1043E000100005B030BD10B588B005A8DFF8E413A3
:1043F0000CC90CC00839083830208DF81000052091
:104400000390012002900020019005A80090002355
:1044100004AA01210020FEF77DF910208DF810007C
:10442000052003900120029005A801900020009033
:10443000002304AA01210020FEF76CF900200400EB
:10444000E4B2052C08DAE4B205A8205CC22801D049
:10445000002002E0641CF3E7012008B010BD80B525
:104460000020DFF86413086001212120FFF76CFFB2
:1044700001212220FFF768FF0522DFF850132A20D0
:10448000FFF789FF0F212020FFF75EFFFF21272084
:10449000FFF75AFFFF21E220FFF756FF0120DFF868
:1044A000281308600220DFF83013087001BD80B5C2
:1044B0000020DFF8141308600522DFF81413302001
:1044C000FFF769FF0522DFF804132A20FFF763FFD7
:1044D0000E212020FFF738FF0120BB490860012092
:1044E000BD49087040F6FF7000900098411E009191
:1044F0000028FAD101BDF8B504000D000026B74828
:10450000007800285AD0002D58D0202D28D22A001B
:10451000B3480078B34911EB4011200000F06EFC65
:104520000020A9490860AE480078401CAC490870DA
:10453000AB480078502802DB0020A9490870AA483F
:1045400000780700A6480078FFB2B84202D10020E8
:10455000A249087001209C490860AE1930002EE085
:1045600020229F4800789F4911EB4011200000F065
:1045700045FC2034203D20360020934908609848AF
:104580000078401C9649087095480078502802DB56
:1045900000209349087094480078070090480078FC
:1045A000FFB2B84203D100208C49087002E001201C
:1045B0008A490870012084490860A0E73000F2BDF4
:1045C00038B504000D00002088490870002C01D087
:1045D000002D01D100201DE085480068002818D179
:1045E000681E400983490860814804607A48007861
:1045F000012801D0FFF75BFF0020734908602022EB
:104600002100A020FFF7C7FE01206F4908600120AC
:1046100000E0002032BD7648006800280BD17548C4
:104620000068002807D171480078002801D00120D7
:1046300002E0022000E00020704710B582B000A91F
:104640000720FFF794FE9DF800102720FFF77CFE5F
:104650009DF80000400632D500205B4908605F48A5
:104660000078022824D020225F4800785D4911EBB1
:1046700040116120FFF7A3FE5B480078401C5A49B7
:10468000087059480078502802DB0020564908700D
:1046900053480078040054480078E4B2A04203D1A3
:1046A00002204E49087007E001204C49087003E0E1
:1046B000FF21E220FFF748FE0120434908609DF8F2
:1046C0000000800629D54B480068002809D1002049
:1046D000474908604048007802281ED0FFF7BFFE17
:1046E0001BE03D480078012801D0FFF7E0FE40487C
:1046F000006820303E4908603E480068401E3D4941
:104700000860002030490860202239480168A02054
:10471000FFF741FE01202C4908609DF80000C0060B
:104720000ED5012031490870FF21E120FFF70CFE72
:1047300000202F49086000202E490860FFF78FFEF7
:1047400013BD30B4020012F1200044092348007860
:10475000002801D1002030E0E4B2512C01DB002020
:104760002BE01F480078401E04191F480078030002
:104770001B480078DBB2984206D21B480078E4B2AE
:1047800084420CD3002018E0E4B2502C07DB503CEC
:1047900015480078E4B2844201D300200DE0E4B271
:1047A0002020B2FBF0F505FB102515EB44100D4D54
:1047B000401930F8020C0880012030BC704700001E
:1047C00020BCBE0003000A007020FE43E40BFF1F64
:1047D000DC0BFF1FE8660000E41EFF1FE71EFF1F43
:1047E000E51EFF1F6C14FF1FE61EFF1FE81EFF1FC4
:1047F0006C1EFF1F701EFF1F80B5012201212820A3
:10480000FEF77EFC002201214D20FEF779FC0120FD
:10481000FEF71FFA0120DFF88015086000F02CFB7E
:104820006420FEF716FACF205FF0C0410880002018
:104830005FF0D041088081205FF0D04108803020B7
:104840005FF0D04108806420FEF703FAED205FF0AE
:10485000C041088064205FF0D041088003205FF0F1
:10486000D041088012205FF0D041088081205FF0A5
:10487000D04108806420FEF7ECF9E8205FF0C041E9
:10488000088085205FF0D041088010205FF0D04183
:10489000088078205FF0D04108806420FEF7D9F9C5
:1048A000CB205FF0C041088039205FF0D041088004
:1048B0002C205FF0D041088000205FF0D0410880BC
:1048C00034205FF0D041088002205FF0D0410880A2
:1048D0006420FEF7BEF9F7205FF0C0410880202079
:1048E0005FF0D04108806420FEF7B3F9EA205FF062
:1048F000C041088000205FF0D041088000205FF0B8
:10490000D04108806420FEF7A4F9B1205FF0C041D7
:10491000088000205FF0D04108801B205FF0D0416C
:1049200008806420FEF795F9B6205FF0C04108804A
:104930000A205FF0D0410880A2205FF0D0410880BB
:104940006420FEF786F9C0205FF0C0410880352062
:104950005FF0D04108806420FEF77BF9C1205FF052
:10496000C041088011205FF0D0410880C5205FF071
:10497000C041088045205FF0D041088045205FF0AD
:10498000D0410880C7205FF0C0410880A2205FF0BE
:10499000D0410880F2205FF0C041088000205FF025
:1049A000D041088026205FF0C041088001205FF0E0
:1049B000D04108806420FEF74CF9E0205FF0C04150
:1049C00008800F205FF0D041088026205FF0D041A2
:1049D000088024205FF0D04108800B205FF0D04198
:1049E00008800E205FF0D041088009205FF0D041A0
:1049F000088054205FF0D0410880A8205FF0D041AB
:104A0000088046205FF0D04108800C205FF0D04144
:104A1000088017205FF0D041088009205FF0D04166
:104A200008800F205FF0D041088007205FF0D04160
:104A3000088000205FF0D0410880E1205FF0C04195
:104A4000088000205FF0D041088019205FF0D0413D
:104A500008801B205FF0D041088004205FF0D04127
:104A6000088010205FF0D041088007205FF0D0411F
:104A700008802A205FF0D041088047205FF0D041B5
:104A8000088039205FF0D041088003205FF0D041DA
:104A9000088006205FF0D041088006205FF0D041FA
:104AA000088030205FF0D041088038205FF0D0418E
:104AB00008800F205FF0D04108806420FEF7C9F81D
:104AC0006420FEF7C6F83A205FF0C0410880552008
:104AD0005FF0D041088011205FF0C0410880642061
:104AE000FEF7B7F829205FF0C0410880AB48007896
:104AF00000F008F82C205FF0C04108800020A84991
:104B0000086001BDC0B20422010091FBF2F000FB7D
:104B10001210A2490870C0B2002806D0022874D032
:104B20003BD3032800F0A980DFE036215FF0C042CC
:104B30001180A8215FF0D04211802A215FF0C0428D
:104B4000118000215FF0D042118000215FF0D0423F
:104B5000118001215FF0D04211803F215FF0D042EF
:104B600011802B215FF0C042118000215FF0D04204
:104B7000118000215FF0D042118000215FF0D0420F
:104B80001180EF215FF0D0421180F021854A118021
:104B90004FF4A071844A1180A7E036215FF0C04233
:104BA0001180D8215FF0D04211802A215FF0C042ED
:104BB000118000215FF0D042118000215FF0D042CF
:104BC000118000215FF0D0421180EF215FF0D042D0
:104BD00011802B215FF0C042118000215FF0D04294
:104BE000118000215FF0D042118001215FF0D0429E
:104BF00011803F215FF0D04211804FF4A071694ACB
:104C00001180F021684A11806FE036215FF0C042C8
:104C1000118068215FF0D04211802A215FF0C042EC
:104C2000118000215FF0D042118000215FF0D0425E
:104C3000118001215FF0D04211803F215FF0D0420E
:104C400011802B215FF0C042118000215FF0D04223
:104C5000118000215FF0D042118000215FF0D0422E
:104C60001180EF215FF0D0421180F0214D4A118078
:104C70004FF4A0714C4A118037E036215FF0C042FA
:104C8000118018215FF0D04211802A215FF0C042CC
:104C9000118000215FF0D042118000215FF0D042EE
:104CA000118000215FF0D0421180EF215FF0D042EF
:104CB00011802B215FF0C042118000215FF0D042B3
:104CC000118000215FF0D042118001215FF0D042BD
:104CD00011803F215FF0D04211804FF4A071314A22
:104CE0001180F021304A1180FFE7704703B42A2079
:104CF0005FF0C0410880BDF8000080B2000A5FF09C
:104D0000D0410880BDF80000C0B25FF0D0410880FB
:104D1000BDF80000BDF8041011FA80F0401E00122A
:104D20005FF0D0410880BDF80000BDF804100818FD
:104D3000401EC0B25FF0D04108802B205FF0C04120
:104D40000880BDF8020080B2000A5FF0D041088000
:104D50009DF80200C0B25FF0D0410880BDF80200AB
:104D6000BDF8061011FA80F0401E00125FF0D0412D
:104D70000880BDF80200BDF806100818401EC0B239
:104D80005FF0D041088002B0704706480088704745
:104D900005480088704700003410FE43D40BFF1F05
:104DA0002008FE43D00BFF1FD20BFF1F10B50400DD
:104DB0004FF4007094FBF0F101FB1041002903D087
:104DC0001E210B48FDF72BFE0A48046010BD38B5C4
:104DD00004000D00074800680749884203D03021CD
:104DE0000348FDF71CFE64B2034840F8245031BD6F
:104DF0001865000008ED00E00000FF1F30B4002A35
:104E000038D0D41DE40823000824B2FBF4F505FBD8
:104E10001425002D0BD0022D21D024D3042D16D023
:104E200019D3062D0BD00ED3072D04D022E00C7819
:104E30000470491C401C0C780470491C401C0C7800
:104E40000470491C401C0C780470491C401C0C78F0
:104E50000470491C401C0C780470491C401C0C78E0
:104E60000470491C401C0C780470491C401C5B1EDB
:104E7000002BDCD130BC704780B53E48006850F450
:104E800040703C4908603C48006850F001003A49D5
:104E900008604FF4A8616620FDF754FD4FF4A86147
:104EA0006520FDF74FFD4FF4A8616420FDF74AFD32
:104EB0004FF4A8616320FDF745FD4FF4A86162201F
:104EC000FDF740FD4FF4A8614A20FDF73BFD4FF48C
:104ED000A8614920FDF736FD4FF4A8614820FDF791
:104EE00031FD4FF4A8614720FDF72CFD4FF4A86178
:104EF0004620FDF727FD4FF4A8614520FDF722FD70
:104F00004FF4A8614420FDF71DFD4FF4A861422035
:104F1000FDF718FD4FF4A8614120FDF713FD4FF494
:104F2000A8614020FDF70EFD4FF4A8613220FDF787
:104F300009FD4FF4A8613320FDF704FD4FF4A8618B
:104F40006120FDF7FFFC4FF4A8614B20FDF7FAFC50
:104F50004FF4A8614C20FDF7F5FC5FF0C040074915
:104F600008600748074908604FF460700649086008
:104F700001BD00BF048004404080044000C00040E8
:104F80000100000804C0004008C00040DFF800F045
:104F9000E10EFF1F40B2DFF8B41331F8201040B229
:104FA0000128C0F2788140B2162880F27481002274
:104FB000DFF89C331A7089B2652904DA0022DFF821
:104FC00090335A707DE089B2C92904DA0122DFF8F2
:104FD00080335A7075E089B2B1F5967F04DC022205
:104FE000DFF86C335A706CE089B2B1F5C87F04DC2D
:104FF0000322DFF85C335A7063E089B2B1F5FA7FBF
:1050000004DC0422DFF848335A705AE089B2B1F563
:10501000167F04DC0522DFF838335A7051E089B27C
:10502000B1F52F7F04DC0622DFF824335A7048E004
:1050300089B2B1F5487F04DC0722DFF814335A70D7
:105040003FE089B2B1F5617F04DC0822DFF800336C
:105050005A7036E089B2B1F57A7F04DC0922DFF8B4
:10506000F0325A702DE089B240F24D42914203DA9B
:105070000A22B74B5A7024E089B2B1F5966F03DC6F
:105080000B22B34B5A701CE089B240F21552914288
:1050900003DA0C22AE4B5A7013E089B2B1F5AF6F50
:1050A00003DC0D22AA4B5A700BE089B240F2DD52AC
:1050B000914203DA0E22A64B5A7002E00F22A44B53
:1050C0005A7089B2332903DA0022A14B9A7071E039
:1050D00089B2652903DA01229D4B9A706AE089B290
:1050E000972903DA02229A4B9A7063E089B2C929A0
:1050F00003DA0322964B9A705CE089B2FB2903DA4B
:105100000422934B9A7055E089B2B1F5967F03DC87
:1051100005228F4B9A704DE089B2B1F5AF7F03DC69
:1051200006228B4B9A7045E089B2B1F5C87F03DC4B
:105130000722874B9A703DE089B2B1F5E17F03DC2D
:105140000822834B9A7035E089B2B1F5FA7F03DC0F
:1051500009227F4B9A702DE089B240F227229142BA
:1051600003DA0A227A4B9A7024E089B2B1F5167FED
:1051700003DC0B22764B9A701CE089B240F28B2242
:10518000914203DA0C22724B9A7013E089B2B1F5A6
:105190002F7F03DC0D226E4B9A700BE089B240F238
:1051A000EF22914203DA0E22694B9A7002E00F223D
:1051B000674B9A7089B21A2903DA0022644BDA70BD
:1051C00069E089B2332903DA0122614BDA7062E0C7
:1051D00089B24C2903DA02225D4BDA705BE089B2B6
:1051E000652903DA03225A4BDA7054E089B27E292A
:1051F00003DA0422564BDA704DE089B2972903DABC
:105200000522534BDA7046E089B2B02903DA062250
:105210004F4BDA703FE089B2C92903DA07224C4BC1
:10522000DA7038E089B2E22903DA0822484BDA70F2
:1052300031E089B2FB2903DA0922454BDA702AE012
:1052400089B2B1F58A7F03DA0A22414BDA7022E093
:1052500089B2B1F5967F03DC0B223D4BDA701AE080
:1052600089B2B1F5A37F03DA0C22394BDA7012E070
:1052700089B2B1F5AF7F03DC0D22354BDA700AE05D
:1052800089B2B1F5BC7F03DA0E22314BDA7002E04D
:105290000F222F4BDA70704710B50400200040B287
:1052A000FFF778FE2B48007810F0FD0029490870C0
:1052B0002848007850F0100026490870B820264988
:1052C000087026480078C006FBD424480078C0F354
:1052D0008100C0B20228F8D11D48C3781C488278EA
:1052E0001B4841781A480078FFF750FE64B217480F
:1052F00010EB8400807810F007001949087064B240
:10530000124810EB8400C07810F01F0050F04000ED
:1053100014490870114800788006FBD50F480078C2
:105320004006FBD50C48007810F03F000A49087091
:105330000A480078C0F38100C0B20328F8D164B2F3
:10534000024830F82400C0B210BD0000340BFF1F2B
:105350008C0BFF1F014006400040064006400640FF
:10536000044006400540064001B4BDF80000002896
:1053700005D0BDF80000401EADF80000F5E701B013
:10538000704780B5012201211A20FDF7B9FE0122E4
:1053900001211920FDF7B4FE23211A20FDF7F4FAAC
:1053A00023211920FDF7F0FA01BD80B501207A49CB
:1053B00008600120794908604FF4C870FFF7D4FFF6
:1053C00000207749086077480068002804D1012050
:1053D00073490860002016E0012071490860002030
:1053E0006D4908604FF4C870FFF7BEFF00206B499D
:1053F00008606C480068002804D0012068490860F3
:10540000002000E0012002BD80B500206349086053
:105410000020614908604FF4C870FFF7A5FF012024
:105420005E4908604FF4C870FFF79EFF01205A499B
:1054300008604FF4C870FFF797FF01BD80B50020EA
:10544000564908604FF4C870FFF78EFF002052499C
:1054500008604FF4C870FFF787FF01204F490860CC
:105460004FF4C870FFF780FF00204C4908604FF4EC
:10547000C870FFF779FF01BD80B50020474908607B
:105480004FF4C870FFF770FF0120434908604FF4E4
:10549000C870FFF769FF0120404908604FF4C870E9
:1054A000FFF762FF00203D4908604FF4C870FFF726
:1054B0005BFF01BD80B500203849086000203849F5
:1054C00008604FF4C870FFF74FFF012033490860B0
:1054D0004FF4C870FFF748FF32480068002807D033
:1054E00001202F49086000202C490860002006E0B8
:1054F00001202B490860002028490860012002BDD6
:1055000038B5050008242000441EC0B2002818D079
:10551000280603D501202049086002E000201E492A
:1055200008606D004FF4C870FFF71EFF01201B4993
:1055300008604FF4C870FFF717FF00201749086094
:10554000E1E731BD38B50824002500201449086082
:105550002000441EC0B2002815D06D0000200F4965
:1055600008604FF4C870FFF7FFFE01200B49086088
:105570004FF4C870FFF7F8FE0A4800680028E7D02B
:1055800055F00105E4E701200549086000200349C2
:105590000860EDB2280032BD6400FE436800FE439F
:1055A000E402FE436402FE4370B504000D000026D1
:1055B0002900C9B2200080B200F00AF8002805D105
:1055C000761CF6B2142EF3D1002000E0012070BD4D
:1055D00038B504000D00FFF7E8FE002801D10020D7
:1055E00019E04220FFF78CFFFFF764FF002803D18A
:1055F000FFF70AFF00200EE02000C0B2FFF780FF97
:10560000FFF758FF2800C0B2FFF77AFFFFF752FFFD
:10561000FFF7FAFE012032BDF8B504000D001600B8
:1056200000273200D2B2290089B2200000F00AF827
:10563000002805D17F1CFFB21E2FF2D1002000E010
:105640000120F2BD70B504000D001600FFF7ADFE9D
:10565000002801D1002037E04220FFF751FFFFF77B
:1056600029FF002803D1FFF7CFFE00202CE03000F7
:10567000C0B2FFF745FFFFF71DFFFFF7C5FEFFF7BD
:1056800094FE002801D100201EE04320FFF738FFE0
:10569000FFF710FF002803D1FFF7B6FE002013E04C
:1056A000ADB2002D0DD0FFF74DFF2070ADB2012D32
:1056B00002D1FFF7E1FE01E0FFF7C0FE641C6D1EA2
:1056C000EEE7FFF7A1FE012070BD00002DE9F843D1
:1056D00080460C005FEA981010F00700C0B25FEA45
:1056E00040194046103810F03F00C0B2C00005001D
:1056F00015EB09000700E4B217EBC400401E0600DA
:10570000F6B2FFB2BE420DD3002200213800C0B273
:10571000FDF7F6FC4FF481713800C0B2FDF712F9C5
:105720007F1CEDE7BDE8F1832DE9F84F04000D0083
:1057300016001F009DF92880DDF82C90DDF830A0C0
:105740004FFA88F8B8F1000F02D15FF0010B11E0B9
:105750004FFA88F8B8F1010F02D15FF0020B09E0AF
:105760004FFA88F8B8F1020F02D15FF0040B01E0A4
:105770005FF0100B4FFA88F8B8F1000F05D16748B9
:10578000854202D36648A84221D24FFA88F8B8F180
:10579000010F09D16148854206D36248A84203D36C
:1057A00015F00300032812D14FFA88F8B8F1020F60
:1057B00009D15A48854206D35B48A84203D315F065
:1057C0000300002803D061215848FDF728F9B9F5F6
:1057D000004F03D363215548FDF721F95448006871
:1057E00050F00200524908605248006850F0020030
:1057F0005049086064B260014F49455064B260018D
:1058000000F1804010F510400661002064B2610193
:1058100001F1804111F5104188805FFA8BFB64B281
:10582000600100F1804010F51040A0F814B04FFA6C
:1058300088F85FEA082010F4E0604FFA88F818F062
:105840000701084364B2610101F1804111F5104183
:10585000C88048464004400C64B2610101F18041B7
:1058600011F51041C88248464004400C64B2610101
:1058700001F1804111F51041C8833048006830F0D3
:1058800080002E4908605FFA8BFB64B2600100F172
:10589000804010F51040C0F808B0002064B26101EB
:1058A00001F1804111F51041C8605FEACA7002D46D
:1058B000D9F1000000E0002064B2610101F18041F3
:1058C00011F5104188614CF20A0064B2610101F1E6
:1058D000804111F510418883FFB27809313050F0D2
:1058E000800064B21649605416493800C0B2FDF712
:1058F00029F85946C9B22800FFF7E8FE12480068A7
:105900000121A14088431049086010480068012126
:10591000A14008430D490860BDE8F18F10F00F4029
:1059200013F10F4012F10F4010F10F40006400001E
:10593000408004403C8004400090004000800040D3
:1059400000100240000101000C8000402480004053
:1059500010F00702874B1B6819004FF6FF03194030
:10596000854B53EA02231943824B1960704701218A
:1059700010F01F02914040B24209804B43F82210C0
:10598000704710B440B2002808D50A0140B210F0A8
:105990000F037B4C1B1903F8042C03E00A0140B2EF
:1059A000784BC25410BC70472DE9F8437648046820
:1059B00076480568764806685FF000080420FFF71F
:1059C000C7FF00215720FFF7DCFF01215B20FFF715
:1059D000D8FF02210020FFF7D4FF03214420FFF766
:1059E000D0FF0420FDF7B2F8FEF742FAFEF758FCAC
:1059F0000028FBD00FF23D116B20FFF7E8F95B2088
:105A0000FFF7B5FFFEF78CFB142081464846B0F146
:105A10000109002804D05F490320FEF791FBF5E758
:105A200000F0C8F85C4800680A2101FB00F1002082
:105A300000F05CF90FF229115420FFF7C8F9442057
:105A4000FFF795FF5548006800F0A2F90FF2C10179
:105A50006720FFF7BCF90FF201111020FFF7B7F92B
:105A600000F0FCF94E4900A8FEF792FB07007FB258
:105A7000052F2ED19DF90000002802D0022808D061
:105A800027E02B004548026831002000FEF7F1FABC
:105A90001FE04448006800281AD1FEF7DBF901280E
:105AA00013D015D3032803D00CD3042805D00FE05E
:105AB00000210020FDF767F80AE001210020FDF732
:105AC00062F805E00020804602E001208046FFE702
:105AD000FFE77FB2042FC5D15FFA88F8B8F1000F55
:105AE00003D12C490020FEF72BFB2B002B4802682A
:105AF00031002000FEF7BDFA5FFA88F8B8F1000F18
:105B000003D1FEF788FD0028FBD000F060F8A7E77E
:105B100038B52548006805005FF0FF30224908606D
:105B20001D20040035FA04F0C00701D500F066F925
:105B300031BD000038B51D48006805005FF0FF303A
:105B40001A4908601B20040035FA04F0C00701D58B
:105B5000FEF773FD31BD000080B500F075F901BDA1
:105B600080B5FDF76AFA1248006850F0010010494C
:105B7000086001BD0CED00E00000FA0500E100E066
:105B800018ED00E000E400E0F0660000F4660000BC
:105B9000F8660000AC11FF1F3814FF1F1004FF1F30
:105BA000300FFF1F881EFF1FA0900440A0D00440AC
:105BB0000C71034080B50820FDF792F9FDF76EFEE9
:105BC0000720FEF7FDF80720FEF77EF801BD80B53F
:105BD00000A8FDF701FA002800F087809DF9010078
:105BE00000283CD19DF9000000280BD0022811D0DC
:105BF0000CD3042819D011D3062819D012D30728A2
:105C000021D02BE00420FDF7CAFEE1E70520FDF7D7
:105C1000C6FEDDE70120FDF7C6FFD9E70020FDF74E
:105C2000C2FFD5E7FEF712F8D2E7FEF731F8CFE76B
:105C300003210020FDF766FE0020FEF7C1F80020DA
:105C4000FEF742F8C4E704210020FDF75BFE0020C8
:105C5000FEF7B6F80020FEF737F8B9E7B8E79DF988
:105C600001000228B4D19DF9000000280CD00128C1
:105C70000ED0022810D0032812D0052814D00628F0
:105C800019D0072824D02FE00620FDF788FE9FE7D3
:105C90000720FDF784FE9BE70320FDF784FF97E7CD
:105CA0000220FDF780FF93E70720FEF789F8072021
:105CB000FEF70AF88CE703210020FDF723FE002001
:105CC000FEF77EF80028FAD00020FDF7FDFF7FE701
:105CD00004210020FDF716FE0020FEF771F80028D1
:105CE000FAD00020FDF7F0FF72E701BD38B50400DF
:105CF0000D00002D03D122211748FCF790FE174814
:105D0000006850F40000154908600020144908603C
:105D1000681E64B22101134A885064B2114810EB26
:105D20000410C06850F0010064B20E4911EB041178
:105D3000C86064B20B4810EB041080684008400053
:105D400064B2084911EB04118860032064B205496C
:105D500011EB0411886031BD786400003C80044080
:105D60000070034000710340012110F01F029140B8
:105D700040B24209764B43F822107047012110F0DF
:105D80001F02914040B24209724B43F82210704703
:105D900010B504007048046000F081F80028FBD0C2
:105DA00000F002F8002010BDE0B5012002904FF491
:105DB00016700190002000901B2367480268674915
:105DC0000020FFF7B1FC66480068400840006449C5
:105DD00008605720FFF7D2FF6248006850F00100CA
:105DE000604908600020FFF7BFFF5F491B20FCF7F8
:105DF000A9FD5E491D20FCF7A5FD07BD80B55C48E7
:105E000090F90000042818D1032059490870572040
:105E1000FFF7B4FF5FF00060564908605048006823
:105E200050F001004E4908605FF000605149086081
:105E3000494800685049086005E05720FFF79EFF79
:105E400002204B49087001BD0120494908704548AE
:105E5000006850F0010043490860704780B5042095
:105E6000434908705FF0FF30424908605720FFF750
:105E70007BFF3F4890F9000001280FD03C4890F983
:105E800000000228F5D10420394908705FF0FF3086
